:100000000C942A000C9460030C9447000C94470055
:100010000C9447000C94D5030C9447000C944700B3
:100020000C9447000C9447000C9447000C94470034
:100030000C9447000C9447000C9447000C94470024
:100040000C9436040C9447000C9447000C94470021
:100050000C94470011241FBECFE5D8E0DEBFCDBF12
:1000600010E0A0E6B0E0E4E3FDE002C005900D92F0
:10007000A836B107D9F720E0A8E6B0E001C01D928C
:10008000A237B207E1F70E94FA030C9498060C9489
:10009000000098B39F70282F207F922B98BB98B3B5
:1000A0009B7F98BB98B39D7F98BB98B3916098BB9A
:1000B000E9EFF0E03197F1F700C0000098B39E7FC0
:1000C00098BBF2E4FA95F1F700C028B330E1839FC2
:1000D000C0011124922F9F70892B88BB88B3816047
:1000E00088BB81E28A95F1F7000088B38E7F88BBD8
:1000F000E7E8F3E13197F1F700C00000089598B305
:100100009F70282F207F922B98BB98B3946098BB48
:1001100098B39D7F98BB98B3916098BBE9EFF0E0EE
:100120003197F1F700C0000098B39E7F98BBE7EAD3
:10013000F1E63197F1F700C0000028B3F0E18F9F9E
:10014000C0011124922F9F70892B88BB88B38160D6
:1001500088BB31E23A95F1F7000088B38E7F88BB07
:1001600087EA91E60197F1F700C0000008950F9328
:100170001F93CF938C01C0E003C00E947F00CF5F2C
:10018000F801EC0FF11D80818111F7CFCF911F9104
:100190000F910895CF93DF9300D000D000D0CDB75A
:1001A000DEB74AE0BE016F5F7F4F0E946306CE015B
:1001B00001960E94B70026960FB6F894DEBF0FBED8
:1001C000CDBFDF91CF910895CF93DF9300D000D0C2
:1001D000CDB7DEB790E8998390EC9A8394E99B833E
:1001E00094ED9C83E82FF0E0319781E090E08C0F54
:1001F0009D1FE80FF91F8081860F81500E944900E2
:1002000091E29A95F1F700000F900F900F900F90E8
:10021000DF91CF91089587B3806287BB87B38061F8
:1002200087BB87B3846087BB87B3826087BB8AB391
:1002300082608ABB8AB384608ABB8AB388608ABBC7
:100240008AB380618ABB089564E00E94230588B365
:10025000806288BB88B38F7E88BB089564E00E946B
:10026000230588B38F7D88BB88B3806188BB0895E0
:1002700088B38F7D88BB88B38F7E88BB089564E088
:100280000E94230588B3846088BB88B38D7F88BBB8
:10029000089564E00E94230588B38B7F88BB88B3F0
:1002A000826088BB089588B38B7F88BB88B38D7FBD
:1002B00088BB089564E00E9423058BB382608BBBEA
:1002C0008BB38B7F8BBB089564E00E9423058BB3B7
:1002D0008D7F8BBB8BB384608BBB08958BB38D7F7D
:1002E0008BBB8BB38B7F8BBB089564E00E9423058F
:1002F0008BB388608BBB8BB38F7E8BBB089564E020
:100300000E9423058BB3877F8BBB8BB380618BBB34
:1003100008958BB3877F8BBB8BB38F7E8BBB089588
:10032000CF93C82F0E9424018C2F0E943F018C2F55
:100330000E945A018C2F0E947501CF910895CF938E
:10034000C82F0E942E018C2F0E9449018C2F0E94E1
:1003500064018C2F0E947F01CF910895CF93C82F05
:100360000E9424018C2F0E9449018C2F0E945A0167
:100370008C2F0E947F01CF910895CF93C82F0E94A8
:100380002E018C2F0E943F018C2F0E9464018C2F24
:100390000E947501CF9108950E946E010E9489010B
:1003A0000E9453010E94380108958F929F92AF924C
:1003B000BF92CF92DF92EF92FF924B015C01C12C72
:1003C000D12C76011AC082E30E94AE0187E893E146
:1003D0000197F1F700C0000094E1C90ED11CE11CA7
:1003E000F11C86E00E945F0305C00E94CC0186E0FC
:1003F0000E945F036E317105C0F38C149D04AE043E
:10040000BF0408F7FF90EF90DF90CF90BF90AF90C0
:100410009F908F9008958F929F92AF92BF92CF92AC
:10042000DF92EF92FF92882499245401861A970A4A
:10043000A80AB90AC12CD12C76011AC082E30E9405
:10044000BD0187E893E10197F1F700C0000094E156
:10045000C90ED11CE11CF11C85E00E945F0305C0A0
:100460000E94CC0186E00E945F036E317105C0F3EB
:100470008C149D04AE04BF040CF7FF90EF90DF9046
:10048000CF90BF90AF909F908F9008958F929F9242
:10049000AF92BF92CF92DF92EF92FF924B015C013D
:1004A000C12CD12C76011AC082E30E94900187E80A
:1004B00093E10197F1F700C0000094E1C90ED11C4F
:1004C000E11CF11C87E00E945F0305C00E94CC0183
:1004D00087E00E945F036E317105C0F38C149D04A8
:1004E000AE04BF040CF7FF90EF90DF90CF90BF9069
:1004F000AF909F908F9008958F929F92AF92BF92EE
:10050000CF92DF92EF92FF92882499245401861AA9
:10051000970AA80AB90AC12CD12C76011AC082E325
:100520000E949F0187E893E10197F1F700C0000066
:1005300094E1C90ED11CE11CF11C84E00E945F0310
:1005400005C00E94CC0184E00E945F036E317105FA
:10055000C0F38C149D04AE04BF040CF7FF90EF9021
:10056000DF90CF90BF90AF909F908F9008954F9263
:100570005F926F927F928F929F92AF92BF92CF9233
:10058000DF92EF92FF920F931F93CF93DF93CDB73C
:10059000DEB760970FB6F894DEBF0FBECDBF2983DC
:1005A0003A834B835C836D837E838F839887A98690
:1005B000BA86CB86DC86ED86FE860F87188BC984CB
:1005C000DA84EB84FC8489819A81AB81BC81C81A6E
:1005D000D90AEA0AFB0A8D849E84AF84B8888D818B
:1005E0009E81AF81B885881A990AAA0ABB0AC701F9
:1005F000B60122E330E040E050E00E941606A8EE8B
:10060000B3E00E9444062B013C011C141D041E048F
:100610001F041CF40E94D50104C0FF2014F40E94A2
:100620000B02181419041A041B042CF4C301B201A0
:100630000E94460206C0BB2024F4C301B2010E94FE
:100640007C0260960FB6F894DEBF0FBECDBFDF917F
:10065000CF911F910F91FF90EF90DF90CF90BF90BF
:10066000AF909F908F907F906F905F904F90089584
:1006700084B3816084BB84B3826084BB089584B3F7
:10068000806884BB84B3806284BB84B3806484BB91
:1006900084B3806184BB81B38B7F81BB82B3846070
:1006A00082BB80E00E945A0581E090E00E948505AF
:1006B00089B7806489BF81E00E945A040895089533
:1006C0001F920F920FB60F9211242F933F934F93C7
:1006D0005F936F937F938F939F93AF93BF93EF93AA
:1006E000FF9380917100813089F4809170008111B5
:1006F0004BC014BC81E08093700010926C0010928B
:100700006D0010926E0010926F003EC080916C00E0
:1007100090916D00A0916E00B0916F00BA2FA92F3B
:10072000982F882724B5BC01CD01620F711D811D52
:10073000911D22ED31E040E050E00E94F40520934D
:1007400068003093690040936A0050936B0062E048
:1007500082E00E94E40080916800909169000E940C
:10076000CA002FEF89EF90E0215080409040E1F7E0
:1007700000C0000010926C0010926D0010926E008C
:1007800010926F0010927000FF91EF91BF91AF91A6
:100790009F918F917F916F915F914F913F912F9199
:1007A0000F900FBE0F901F9018951F920F920FB6CB
:1007B0000F9211248F939F93AF93BF9380916C00FE
:1007C00090916D00A0916E00B0916F000196A11DF7
:1007D000B11D80936C0090936D00A0936E00B09358
:1007E0006F00BF91AF919F918F910F900FBE0F90AF
:1007F0001F901895CF93DF93CDB7DEB760970FB6F4
:10080000F894DEBF0FBECDBF0E940B010E943F03D4
:100810000E94380319821A821B821C821D821E824A
:100820001F82188688E0E0E6F0E0DE01199601906C
:100830000D928A95E1F7A984BA84CB84DC84ED8497
:10084000FE840F85188929813A814B815C816D81F5
:100850007E818F8198850E94B702EDCF84B185BBE0
:1008600085B182BB86B1806486B908951F920F92CC
:100870000FB60F9211242F933F934F935F936F9373
:100880007F938F939F93AF93BF93EF93FF930E94B8
:100890002E04FF91EF91BF91AF919F918F917F9126
:1008A0006F915F914F913F912F910F900FBE0F90DD
:1008B0001F901895813069F028F0823089F08330DC
:1008C000B1F01BC085B78E7F85BF85B78D7F85BF93
:1008D00014C085B7816085BF85B78D7F85BF0DC08A
:1008E00085B78E7F85BF85B7826085BF06C085B717
:1008F000816085BF85B7826085BF8BB780648BBF01
:100900000895813069F028F0823089F08330B1F0A9
:100910001CC083B78F7B83BF83B7877F83BF089556
:1009200083B78F7B83BF83B7886083BF089583B706
:10093000806483BF83B7886083BF089583B7806472
:1009400083BF83B7877F83BF089583B78F7B83BFC0
:1009500083B7877F83BF08958830910531F128F4EC
:10096000009779F00197B9F048C0811521E092070E
:1009700081F1811524E09207B1F180349105E9F508
:100980001EC083B78E7F83BF83B78D7F83BF83B73E
:100990008B7F83BF089583B7816083BF83B78D7FCB
:1009A00083BF83B78B7F83BF089583B78E7F83BF59
:1009B00083B7826083BF83B78B7F83BF089583B77C
:1009C000816083BF83B7826083BF83B78B7F83BF20
:1009D000089583B78E7F83BF83B78D7F83BF83B72F
:1009E000846083BF089583B7816083BF83B78D7FA1
:1009F00083BF83B7846083BF089583B78E7F83BF2F
:100A000083B78D7F83BF83B78B7F83BF089581308A
:100A100049F0823069F483B78F7E83BF83B78062E9
:100A200083BF089583B7806183BF83B7806283BF2C
:100A3000089583E00E94810482E00E94070587B345
:100A4000886087BB0895CF93DF93D82FC62F0E946D
:100A500019052FEFD29FC001112464E670E00E94B7
:100A6000E0056CBFC330A9F028F4C13041F0C230BA
:100A700059F01DC0C43091F0C530A9F018C081E014
:100A800090E00E94AC0413C088E090E00E94AC04A7
:100A90000EC080E490E00E94AC0409C080E091E0C8
:100AA0000E94AC0404C080E094E00E94AC04DF919A
:100AB000CF910895813069F028F0823089F0833039
:100AC000B1F01CC085B58F7B85BD85B5877F85BDA1
:100AD000089585B58F7B85BD85B5886085BD0895F2
:100AE00085B5806485BD83B7886083BF089585B56B
:100AF000806485BD85B5877F85BD089585B58F7B6D
:100B000085BD85B5877F85BD08958830910531F114
:100B100028F4009779F00197B9F048C0811521E0D9
:100B2000920781F1811524E09207B1F1803491059B
:100B3000E9F51EC085B58E7F85BD85B58D7F85BDE8
:100B400085B58B7F85BD089585B5816085BD85B5EB
:100B50008D7F85BD85B58B7F85BD089585B58E7FDD
:100B600085BD85B5826085BD85B58B7F85BD0895C2
:100B700085B5816085BD85B5826085BD83B78B7F76
:100B800083BF089585B58E7F85BD85B58D7F85BD75
:100B900085B5846085BD089585B5816085BD85B5C1
:100BA0008D7F85BD85B5846085BD089585B58E7FB3
:100BB00085BD85B58D7F85BD85B58B7F85BD089548
:100BC00097FB072E16F4009407D077FD09D00E94FA
:100BD0004F0607FC05D03EF4909581959F4F0895F0
:100BE000709561957F4F0895A1E21A2EAA1BBB1B39
:100BF000FD010DC0AA1FBB1FEE1FFF1FA217B307E9
:100C0000E407F50720F0A21BB30BE40BF50B661FFE
:100C1000771F881F991F1A9469F7609570958095C2
:100C200090959B01AC01BD01CF010895052E97FB66
:100C30001EF400940E942D0657FD07D00E94F40573
:100C400007FC03D04EF40C942D065095409530953A
:100C500021953F4F4F4F5F4F089590958095709528
:100C600061957F4F8F4F9F4F0895A29FB001B39F13
:100C7000C001A39F700D811D1124911DB29F700DA5
:100C8000811D1124911D08950E943506A59F900D88
:100C9000B49F900DA49F800D911D11240895AA1B4F
:100CA000BB1B51E107C0AA1FBB1FA617B70710F057
:100CB000A61BB70B881F991F5A95A9F78095909589
:100CC000BC01CD010895BB274A3031F4992322F4A9
:100CD000BDE2909581959F4F0C946F06BB27FB0159
:100CE0005527AA27880F991FAA1FA41710F0A41B25
:100CF00083955051B9F7A05DAA3308F0A95DA1937F
:100D0000009779F7B111B1931192CB010C94880639
:100D1000DC01FC01672F71917723E1F7329704C062
:100D20007C916D9370836291AE17BF07C8F30895ED
:040D3000F894FFCF65
:080D3400204E0000D007000072
:00000001FF
